:020000040800F2
:1000000000500020ED320008592E00085B2E000839
:100010005D2E00085F2E0008612E00080000000021
:10002000000000000000000000000000632E000837
:10003000652E000800000000672E0008692E0008E9
:1000400035330008353300083533000835330008F0
:1000500035330008353300083533000835330008E0
:1000600035330008353300083533000835330008D0
:10007000712E0008812E000835330008912E0008EB
:10008000A12E000835330008353300083533000849
:1000900035330008353300083533000835330008A0
:1000A0003533000835330008353300083533000890
:1000B0003533000835330008B12E00083533000809
:1000C000353300083533000835330008C12E0008E9
:1000D000D12E000835330008E12E00083533000822
:1000E00035330008353300083533000800000000C0
:1000F0000000000000000000000000000000000000
:0C01000000000000000000005FF808F1A3
:1001100010B5054C237833B9044B13B10448AFF341
:1001200000800123237010BDC009002000000000E2
:100130002CB2000808B5034B1BB103490348AFF3C9
:10014000008008BD00000000C40900202CB2000897
:1001500081F0004102E000BF83F0004330B54FEA78
:1001600041044FEA430594EA050F08BF90EA020FE5
:100170001FBF54EA000C55EA020C7FEA645C7FEA78
:10018000655C00F0E2804FEA5454D4EB5555B8BF9B
:100190006D420CDD2C4480EA020281EA030382EA0C
:1001A000000083EA010180EA020281EA0303362D9E
:1001B00088BF30BD11F0004F4FEA01314FF4801C71
:1001C0004CEA113102D0404261EB410113F0004F83
:1001D0004FEA03334CEA133302D0524263EB43033A
:1001E00094EA050F00F0A780A4F10104D5F1200ED8
:1001F0000DDB02FA0EFC22FA05F2801841F1000133
:1002000003FA0EF2801843FA05F359410EE0A5F106
:1002100020050EF1200E012A03FA0EFC28BF4CF037
:10022000020C43FA05F3C01851EBE37101F00045ED
:1002300007D54FF0000EDCF1000C7EEB00006EEBFA
:100240000101B1F5801F1BD3B1F5001F0CD3490884
:100250005FEA30004FEA3C0C04F101044FEA4452DB
:1002600012F5800F80F09A80BCF1004F08BF5FEA62
:10027000500C50F1000041EB045141EA050130BD42
:100280005FEA4C0C404141EB0101013C28BFB1F554
:10029000801FE9D291F0000F04BF01460020B1FA9F
:1002A00081F308BF2033A3F10B03B3F120020CDA72
:1002B0000C3208DD02F1140CC2F10C0201FA0CF050
:1002C00021FA02F10CE002F11402D8BFC2F1200CB5
:1002D00001FA02F120FA0CFCDCBF41EA0C0190406B
:1002E000E41AA2BF01EB0451294330BD6FEA0404B4
:1002F0001F3C1CDA0C340EDC04F11404C4F120029F
:1003000020FA04F001FA02F340EA030021FA04F3B0
:1003100045EA030130BDC4F10C04C4F1200220FA07
:1003200002F001FA04F340EA0300294630BD21FA45
:1003300004F0294630BD94F0000F83F4801306BF0B
:1003400081F480110134013D4EE77FEA645C18BFFF
:100350007FEA655C29D094EA050F08BF90EA020F96
:1003600005D054EA000C04BF1946104630BD91EA8E
:10037000030F1EBF0021002030BD5FEA545C05D191
:100380004000494128BF41F0004130BD14F58004D0
:100390003CBF01F5801130BD01F0004545F0FE4144
:1003A00041F470014FF0000030BD7FEA645C1ABF79
:1003B000194610467FEA655C1CBF0B46024650EAB0
:1003C000013406BF52EA033591EA030F41F40021DC
:1003D00030BD00BF90F0000F04BF0021704730B562
:1003E0004FF4806404F132044FF000054FF0000137
:1003F00050E700BF90F0000F04BF0021704730B5F8
:100400004FF4806404F1320410F0004548BF4042CC
:100410004FF000013EE700BF42004FEAE2014FEA21
:1004200031014FEA02701FBF12F07F4393F07F4FFC
:1004300081F06051704732F07F4208BF704793F0FF
:100440007F4F04BF41F40021704730B54FF4607412
:1004500001F0004521F000411CE700BF50EA010215
:1004600008BF704730B54FF000050AE050EA0102BE
:1004700008BF704730B511F0004502D5404261EB2E
:1004800041014FF4806404F132045FEA915C3FF46F
:10049000D8AE4FF003025FEADC0C18BF03325FEA0C
:1004A000DC0C18BF033202EBDC02C2F1200300FABD
:1004B00003FC20FA02F001FA03FE40EA0E0021FAE2
:1004C00002F11444BDE600BF80F0004002E000BF2E
:1004D00081F0004142001FBF5FEA410392EA030F2F
:1004E0007FEA226C7FEA236C6AD04FEA1262D2EB79
:1004F0001363C1BFD218414048404140B8BF5B427E
:10050000192B88BF704710F0004F40F4000020F016
:100510007F4018BF404211F0004F41F4000121F02C
:100520007F4118BF494292EA030F3FD0A2F1010276
:1005300041FA03FC10EB0C00C3F1200301FA03F1B4
:1005400000F0004302D5494260EB4000B0F5000FD7
:1005500013D3B0F1807F06D340084FEA310102F196
:100560000102FE2A51D2B1F1004F40EBC25008BF48
:1005700020F0010040EA03007047490040EB000012
:10058000013A28BFB0F5000FEDD2B0FA80FCACF113
:10059000080CB2EB0C0200FA0CF0AABF00EBC25040
:1005A00052421843BCBFD0401843704792F0000F2E
:1005B00081F4000106BF80F400000132013BB5E781
:1005C0004FEA41037FEA226C18BF7FEA236C21D0F7
:1005D00092EA030F04D092F0000F08BF084670475C
:1005E00090EA010F1CBF0020704712F07F4F04D12A
:1005F000400028BF40F00040704712F100723CBF3D
:1006000000F50000704700F0004343F0FE4040F466
:10061000000070477FEA226216BF08467FEA236324
:100620000146420206BF5FEA412390EA010F40F40F
:10063000800070474FF0000304E000BF10F000435B
:1006400048BF40425FEA000C08BF704743F0964342
:1006500001464FF000001CE050EA010208BF70475D
:100660004FF000030AE000BF50EA010208BF7047E4
:1006700011F0004302D5404261EB41015FEA010CF9
:1006800002BF84460146002043F0B64308BFA3F1F1
:100690008053A3F50003BCFA8CF2083AA3EBC253D3
:1006A00010DB01FA02FC634400FA02FCC2F12002F2
:1006B000BCF1004F20FA02F243EB020008BF20F029
:1006C0000100704702F1200201FA02FCC2F120028F
:1006D00050EA4C0021FA02F243EB020008BF20EA84
:1006E000DC7070474FF0FF0C1CEAD0521EBF1CEAB2
:1006F000D15392EA0C0F93EA0C0F6FD01A4480EAA0
:10070000010C400218BF5FEA41211ED04FF0006388
:1007100043EA501043EA5111A0FB01310CF00040B4
:10072000B1F5000F3EBF490041EAD3715B0040EADA
:10073000010062F17F02FD2A1DD8B3F1004F40EBAA
:10074000C25008BF20F00100704790F0000F0CF07D
:10075000004C08BF49024CEA502040EA51207F3A41
:10076000C2BFD2F1FF0340EAC250704740F400001C
:100770004FF00003013A5DDC12F1190FDCBF00F00D
:1007800000407047C2F10002410021FA02F1C2F1BB
:10079000200200FA02FC5FEA310040F1000053EA57
:1007A0004C0308BF20EADC70704792F0000F00F0A5
:1007B000004C02BF400010F4000F013AF9D040EAAB
:1007C0000C0093F0000F01F0004C02BF490011F43F
:1007D000000F013BF9D041EA0C018FE70CEAD1533D
:1007E00092EA0C0F18BF93EA0C0F0AD030F0004CBD
:1007F00018BF31F0004CD8D180EA010000F0004071
:10080000704790F0000F17BF90F0004F084691F02E
:10081000000F91F0004F14D092EA0C0F01D1420268
:100820000FD193EA0C0F03D14B0218BF084608D131
:1008300080EA010000F0004040F0FE4040F400007B
:10084000704740F0FE4040F4400070474FF0FF0C0E
:100850001CEAD0521EBF1CEAD15392EA0C0F93EA55
:100860000C0F69D0A2EB030280EA010C49024FEAA7
:10087000402037D04FF0805343EA111143EA101360
:100880000CF000408B4238BF5B0042F17D024FF418
:10089000000C8B4224BF5B1A40EA0C00B3EB510FF3
:1008A00024BFA3EB510340EA5C00B3EB910F24BFDC
:1008B000A3EB910340EA9C00B3EBD10F24BFA3EB61
:1008C000D10340EADC001B0118BF5FEA1C1CE0D129
:1008D000FD2A3FF650AF8B4240EBC25008BF20F0DC
:1008E000010070470CF0004C4CEA50207F32C2BF30
:1008F000D2F1FF0340EAC250704740F400004FF0CD
:100900000003013A37E792F0000F00F0004C02BFFD
:10091000400010F4000F013AF9D040EA0C0093F0C7
:10092000000F01F0004C02BF490011F4000F013B21
:10093000F9D041EA0C0195E70CEAD15392EA0C0F89
:1009400008D142027FF47DAF93EA0C0F7FF470AFC1
:10095000084676E793EA0C0F04D14B023FF44CAF04
:1009600008466EE730F0004C18BF31F0004CCAD199
:1009700030F000427FF45CAF31F000437FF43CAFD5
:100980005FE700BF844641EA000313F0030349D147
:10099000403A23D30B6803604B6843608B688360E5
:1009A000CB68C3600B6903614B6943618B698361E9
:1009B000CB69C3610B6A03624B6A43628B6A8362D1
:1009C000CB6AC3620B6B03634B6B43638B6B8363B9
:1009D000CB6BC36340304031403ADBD230320BD373
:1009E0000B6803604B6843608B688360CB68C360AF
:1009F00010301031103AF3D20C3205D351F8043BC9
:100A000040F8043B043AF9D2043208D0D2071CBFA4
:100A100011F8013B00F8013B01D30B8803806046CD
:100A2000704700BF082A13D38B07B1D010F003031F
:100A3000AED0C3F10403D21ADB071CBF11F8013B8F
:100A400000F8013BA4D331F8023B20F8023B9FE7BA
:100A5000043AD9D3013A11F8013B00F8013BF9D22D
:100A60000B7803704B7843708B78837060467047C7
:100A700070B54FF0FF0C4CF4E06C1CEA11541DBF34
:100A80001CEA135594EA0C0F95EA0C0F00F0DEF8FF
:100A90002C4481EA030621EA4C5123EA4C5350EAE4
:100AA000013518BF52EA033541F4801143F4801335
:100AB00038D0A0FB02CE4FF00005E1FB02E506F0C6
:100AC0000042E0FB03E54FF00006E1FB03569CF01B
:100AD000000F18BF4EF0010EA4F1FF04B6F5007F21
:100AE00064F5407404D25FEA4E0E6D4146EB060693
:100AF00042EAC62141EA55514FEAC52040EA5E501C
:100B00004FEACE2EB4F1FD0C88BFBCF5E06F1ED8C5
:100B1000BEF1004F08BF5FEA500E50F1000041EBFC
:100B2000045170BD06F0004646EA010140EA0200A9
:100B300081EA0301B4EB5C04C2BFD4EB0C0541EACB
:100B4000045170BD41F480114FF0000E013C00F3E0
:100B5000AB8014F1360FDEBF002001F0004170BD04
:100B6000C4F10004203C35DA0C341BDC04F114041D
:100B7000C4F1200500FA05F320FA04F001FA05F2A9
:100B800040EA020001F0004221F0004110EBD37076
:100B900021FA04F642EB06015EEA430E08BF20EAA2
:100BA000D37070BDC4F10C04C4F1200500FA04F345
:100BB00020FA05F001FA04F240EA020001F00041D7
:100BC00010EBD37041F100015EEA430E08BF20EA4A
:100BD000D37070BDC4F1200500FA05F24EEA020E92
:100BE00020FA04F301FA05F243EA020321FA04F0C1
:100BF00001F0004121FA04F220EA020000EBD37078
:100C00005EEA430E08BF20EAD37070BD94F0000F77
:100C10000FD101F00046400041EB010111F4801FAB
:100C200008BF013CF7D041EA060195F0000F18BF5C
:100C3000704703F00046520043EB030313F4801F98
:100C400008BF013DF7D043EA0603704794EA0C0F52
:100C50000CEA135518BF95EA0C0F0CD050EA410668
:100C600018BF52EA4306D1D181EA030101F00041E5
:100C70004FF0000070BD50EA410606BF104619460D
:100C800052EA430619D094EA0C0F02D150EA013619
:100C900013D195EA0C0F05D152EA03361CBF10465A
:100CA00019460AD181EA030101F0004141F0FE41F9
:100CB00041F470014FF0000070BD41F0FE4141F47D
:100CC000780170BD70B54FF0FF0C4CF4E06C1CEA7D
:100CD00011541DBF1CEA135594EA0C0F95EA0C0F32
:100CE00000F0A7F8A4EB050481EA030E52EA0335ED
:100CF0004FEA013100F088804FEA03334FF080550E
:100D000045EA131343EA12634FEA022245EA11153A
:100D100045EA10654FEA00260EF000419D4208BFEB
:100D2000964244F1FD0404F5407402D25B084FEA98
:100D30003202B61A65EB03055B084FEA32024FF444
:100D400080104FF4002CB6EB020E75EB030E22BFA1
:100D5000B61A754640EA0C005B084FEA3202B6EB61
:100D6000020E75EB030E22BFB61A754640EA5C0010
:100D70005B084FEA3202B6EB020E75EB030E22BFA0
:100D8000B61A754640EA9C005B084FEA3202B6EBA1
:100D9000020E75EB030E22BFB61A754640EADC0060
:100DA00055EA060E18D04FEA051545EA16754FEAC2
:100DB00006164FEAC30343EA52734FEAC2025FEAE0
:100DC0001C1CC0D111F4801F0BD141EA00014FF06F
:100DD00000004FF0004CB6E711F4801F04BF014340
:100DE0000020B4F1FD0C88BFBCF5E06F3FF6AFAE5C
:100DF000B5EB030C04BFB6EB020C5FEA500C50F1EC
:100E0000000041EB045170BD0EF0004E4EEA11316E
:100E100014EB5C04C2BFD4EB0C0541EA045170BD75
:100E200041F480114FF0000E013C90E645EA060EB9
:100E30008DE60CEA135594EA0C0F08BF95EA0C0FE7
:100E40003FF43BAF94EA0C0F0AD150EA01347FF42F
:100E500034AF95EA0C0F7FF425AF104619462CE706
:100E600095EA0C0F06D152EA03353FF4FDAE104669
:100E7000194622E750EA410618BF52EA43067FF4BA
:100E8000C5AE50EA41047FF40DAF52EA43057FF44A
:100E9000EBAE12E74FF0FF3C06E000BF4FF0010C55
:100EA00002E000BF4FF0010C4DF804CD4FEA410CB9
:100EB0007FEA6C5C4FEA430C18BF7FEA6C5C1BD086
:100EC00001B050EA410C0CBF52EA430C91EA030F07
:100ED00002BF90EA020F0020704710F1000F91EA64
:100EE000030F58BF994208BF90422CBFD8176FEA32
:100EF000E37040F0010070474FEA410C7FEA6C5C00
:100F000002D150EA013C07D14FEA430C7FEA6C5C06
:100F1000D6D152EA033CD3D05DF8040B704700BF32
:100F20008446104662468C461946634600E000BF80
:100F300001B5FFF7B7FF002848BF10F1000F01BD52
:100F40004DF808EDFFF7F4FF0CBF012000205DF81D
:100F500008FB00BF4DF808EDFFF7EAFF34BF0120A2
:100F600000205DF808FB00BF4DF808EDFFF7E0FF3B
:100F700094BF012000205DF808FB00BF4DF808ED8C
:100F8000FFF7CEFF94BF012000205DF808FB00BFF3
:100F90004DF808EDFFF7C4FF34BF012000205DF8D5
:100FA00008FB00BF4FEA410C7FEA6C5C02D150EABB
:100FB000013C0AD14FEA430C7FEA6C5C02D152EA51
:100FC000033C02D14FF0000070474FF00100704722
:100FD0004FEA410212F5001215D211D56FF4787361
:100FE000B3EB625212D94FEAC12343F0004343EA04
:100FF000505311F0004F23FA02F018BF40427047DF
:101000004FF00000704750EA013005D111F0004068
:1010100008BF6FF0004070474FF00000704700BFFE
:1010200053B94AB9002908BF00281CBF4FF0FF314F
:101030004FF0FF3000F076B9ADF1080C6DE904CE49
:1010400000F006F8DDF804E0DDE9022304B07047A3
:101050002DE9F047089E0D4604468846002B4DD1E9
:101060008A42944668D9B2FA82F252B101FA02F386
:10107000C2F1200120FA01F10CFA02FC41EA030856
:1010800094404FEA1C41B8FBF1F71FFA8CFE01FBBC
:10109000178807FB0EF0230C43EA084398420AD94D
:1010A0001CEB030307F1FF3580F01E81984240F2EC
:1010B0001B81023F63441B1AB3FBF1F001FB1033A9
:1010C00000FB0EFEA4B244EA0344A6450AD91CEB79
:1010D000040400F1FF3380F00981A64540F2068147
:1010E000644402380021A4EB0E0440EA07401EB11C
:1010F0000023D440C6E90043BDE8F0878B4208D9FD
:10110000002E00F0EE800021C6E900050846BDE88B
:10111000F087B3FA83F100294AD1AB4202D382426D
:1011200000F2FC80841A65EB030301209846002E30
:10113000E2D0C6E90048DFE702B9FFDEB2FA82F288
:10114000002A40F09180A1EB0C0001214FEA1C47DE
:101150001FFA8CFEB0FBF7F307FB1300250C45EAE2
:1011600000450EFB03F0A84208D91CEB050503F16E
:10117000FF3802D2A84200F2CE8043462D1AB5FBBA
:10118000F7F007FB10550EFB00FEA4B244EA05443D
:10119000A64508D91CEB040400F1FF3502D2A64590
:1011A00000F2B6802846A4EB0E0440EA03409EE716
:1011B000C1F120078B4022FA07FC4CEA030C25FA08
:1011C00007FA4FEA1C49BAFBF9F820FA07F309FBC2
:1011D00018AA8D401FFA8CFE1D4300FA01F308FB8C
:1011E0000EF02C0C44EA0A44A04202FA01F20BD998
:1011F0001CEB040408F1FF3A80F08880A04240F222
:101200008580A8F102086444241AB4FBF9F009FBB4
:10121000104400FB0EFEADB245EA0444A64508D9D1
:101220001CEB040400F1FF356CD2A6456AD90238E4
:10123000644440EA0840A0FB0295A4EB0E04AC42D3
:10124000C846AE4656D353D0002E69D0B3EB080241
:1012500064EB0E0422FA01F304FA07F71F43CC40B3
:10126000C6E90074002147E70CFA02FCC2F1200134
:1012700025FA01F34FEA1C4720FA01F195400D438E
:10128000B3FBF7F107FB11331FFA8CFE280C40EA81
:10129000034001FB0EF3834204FA02F408D91CEB6D
:1012A000000001F1FF382FD283422DD9023960446A
:1012B000C01AB0FBF7F307FB1300ADB245EA0045D7
:1012C00003FB0EF0A84208D91CEB050503F1FF381B
:1012D00016D2A84214D9023B6544281A43EA0141B8
:1012E00038E73146304607E72F46E4E61846F9E688
:1012F0004B45A9D2B9EB020865EB0C0E0138A3E708
:101300004346EAE7284694E74146D1E7D0467BE7E3
:101310006444023847E7023B65442FE7084606E786
:101320003146E9E6704700BF03784278134482787B
:101330001344C27813440079834214BF0020012073
:101340007047000000B585B000230093019302931D
:1013500003934FF40043009301230193032303936A
:101360006946034802F04AFA05B05DF804FB00BF85
:101370000008014010B5FFF7E5FF0A4C01224FF4C9
:101380000041204602F053FB00224FF4004120466A
:1013900002F04DFB02F014F8034BD86001221A74DE
:1013A00010BD00BF00080140DC09002000B585B079
:1013B000002300930193029303934FF4004300939F
:1013C0006946034802F01AFA05B05DF804FB00BF55
:1013D0000008014070B582B001F0F2FF754BDB6888
:1013E000C01A112801D802B070BD72B601F09AFE81
:1013F00001224FF48071704802F019FB01F0A4FE45
:101400000446FFF7D3FF4FF400416B4802F008FB9E
:1014100001280BD101F098FE001B3228F3D962B6E7
:1014200001F08AFE634B00221A74DCE701F08CFEA7
:1014300004464FF40041604802F0F2FA58B901F056
:1014400083FE001B6428F4D962B601F075FE594B87
:1014500000221A74C7E701F077FE04464FF40041FA
:10146000554802F0DDFA01280BD101F06DFE001B9A
:101470006428F3D962B601F05FFE4E4B00221A7465
:10148000B1E701F061FE04464FF400414A4802F022
:10149000C7FA58B901F058FE001B3C28F4D962B6CF
:1014A00001F04AFE434B00221A749CE70025009588
:1014B0008DF8045001F048FE0446042D49D800265A
:1014C000072E43D84FF400413B4802F0A9FA012807
:1014D0000BD101F039FE001B6428F3D962B601F08C
:1014E0002BFE344B00221A747DE701F02DFE041B05
:1014F000322C1DD902AB5A1912F8083C5B0043F09C
:10150000010302F8083C01F01FFE04464FF40041BD
:10151000294802F085FA98B901F016FE001B3C2814
:10152000F4D962B601F008FE224B00221A745AE781
:1015300002AB5A1912F8083C5B0002F8083CE2E7DB
:1015400001F002FE04460136F6B2B9E70135EDB20C
:10155000B3E701F0F1FD174B00221A7462B668463A
:10156000FFF7E2FE00283FF43EAF9DF80000FFF7D2
:1015700061F804469DF80100FFF75CF80F49FFF79A
:1015800065F901462046FEF7A5FF0A4D68609DF803
:101590000200FFF74FF804469DF80300FFF74AF8F2
:1015A0000649FFF753F901462046FEF793FF2860EE
:1015B00019E700BFDC090020000801400000C84214
:1015C00010B501F0FDFE114B93F9103033B9104BFB
:1015D0001B68C31A40F6B732934215D90C4B1860FA
:1015E000002401E00134E4B2012C0DD8094B13F9B9
:1015F0003420064B93F910309A42F3D1054B03EB9C
:10160000C4035B689847EDE710BD00BFDC0900200C
:10161000F009002060B200080346034A92E8030084
:1016200083E80300704700BFDC09002000B583B0E9
:10163000164B5A6942F001025A615B6903F00103DB
:101640000193019B002211460C2001F0E5FE0C20C5
:1016500001F01AFF002211460D2001F0DDFE0D20E1
:1016600001F012FF002211460F2001F0D5FE0F20DD
:1016700001F00AFF00221146102001F0CDFE1020DB
:1016800001F002FF03B05DF804FB00BF0010024050
:1016900010B54FF48061064802F0C2F900B110BDE8
:1016A000044C012384F82D3001F08AFEE063F6E754
:1016B00000080140F809002008B54FF480610E4889
:1016C00002F0AEF9012800D008BD0C4BDB6B6BB10A
:1016D00001F076FE094BDB6BC01A0A28F4D9074BE0
:1016E000032283F82D200022DA63EDE701F068FE83
:1016F000024BD863ECE700BF00080140F809002066
:1017000010B501F05DFE04464FF48061094802F017
:1017100087F970B9084BDB6BE31A0A2B09D9064B22
:10172000032283F82C20022283F82D209C630022C0
:10173000DA6310BD00080140F809002010B501F07F
:101740003FFE04464FF480610B4802F069F901281E
:1017500000D010BD094BDB6B0BB9084BDC63074BAA
:10176000D86B201A0A28F4D9032283F82C2083F896
:101770002D200022DA63ECE700080140F809002080
:10178000F0B583B001F01CFE05462E4B1E6C861B87
:101790004FF480612C4802F043F9044601280CD034
:1017A0004CB9C72E07D8274BDD63032283F82C20C2
:1017B000012283F82D2003B0F0BDC72EF0D9214BB4
:1017C0001B6C43B91F4B022283F82C20002283F8A4
:1017D0002D201A64E4E71D4B93E8030002AB03E9F4
:1017E0000300184F002107F1280001F0BEF8BB8C60
:1017F000B7F826C0634503D3798C3A8C914219D04F
:10180000104F7A8C07EBC20E02A911E903008EE893
:101810000300013292FBFCF10CFB11227A840133AC
:101820009BB2BB849C4501D2A7F824C0084801F0B4
:10183000B4F8C7E7013292FBFCF10CFB11223A84A9
:10184000DEE700BFF80900200008014048B20008A8
:10185000200A002030B583B0834D4FF480712846B4
:1018600002F0DEF8814C20704FF40071284602F03F
:10187000D7F87F4B187022787E4B1B789A4210D095
:101880007D4B1B78012B21D901237B490B7022BB97
:1018900001281ED0794B02221A70744B1A78754BAE
:1018A0001A70734B1A78764B1B789A420CD0754B92
:1018B0001B78012B40F2BC80012372490B70012A76
:1018C00000F0B9806E4B1A7003B030BD0133DBB24B
:1018D000DBE76A4B01221A70DFE7684B1B78012BAC
:1018E00040D0022BD9D1674B1B78012B00F08C80A4
:1018F000022BD2D1644A13680133136001228DF8A0
:10190000002006228DF801200193604B93F82D30C2
:10191000022B7DD05D4C002104F1280001F025F858
:10192000A38CE48CA34204D3584A518C128C91426C
:1019300076D0564D6A8C05EBC20C02A911E9030062
:101940008CE80300013292FBF4F104FB11226A845B
:1019500001339BB2AB849C4200D2AC844C4801F072
:101960001CF89AE7474B1B78022B39D0012B94D1F6
:10197000454A1368013B136001228DF800200522BF
:101980008DF801200193414B93F82D30022B2BD081
:101990003E4C002104F1280000F0E7FFA38CE48C0A
:1019A000A34204D3394A518C128C914224D0374D32
:1019B0006A8C05EBC20C02A911E903008CE8030054
:1019C000013292FBF4F104FB11226A8401339BB2D1
:1019D000AB849C4200D2AC842D4800F0DEFF5CE773
:1019E000264B00221A7058E7284B012283F8442026
:1019F00007238DF80130CBE7013292FBF4F104FBB1
:101A0000112222490A84D2E71C4B00221A7044E7B3
:101A10001E4B012283F8442008238DF8013079E71A
:101A2000013292FBF4F104FB112218490A8480E789
:101A30000133DBB241E7114B1B78012B0BD0022B9A
:101A40007FF440AF0C4B1B78022B7FF43BAF0B4B6A
:101A50000021197036E7084B1B78012B7FF432AF59
:101A6000064B002119702DE70008014000000020FE
:101A70000100002002000020440A0020F409002098
:101A800003000020450A0020400A0020F809002039
:101A9000200A0020012803D8024B53F82000704789
:101AA000002070473CB30008082803D8024B53F8C5
:101AB000200070470020704744B30008074B022203
:101AC00083F82C20002283F82D20012183F8341084
:101AD0009A63DA631A6483F844207047F809002097
:101AE00030B583B001F06CFC04464FF480612448AB
:101AF00001F096FF234BDB6BE31A0A2B33D9002846
:101B00003AD1204D022385F82D30AC630023EB63DE
:101B10001D4A92E8030002AA02E90300194605F1F2
:101B2000280000F022FFAB8CEC8CA34203D3698C1D
:101B30002A8C914219D0134D6A8C05EBC20C02A974
:101B400011E903008CE80300013292FBF4F104FB7D
:101B500011226A8401339BB2AB849C4200D2AC84D4
:101B60000A4800F01AFF03B030BD013292FBF4F1D5
:101B700004FB11222A84DEE7FFF7A0FFF3E700BF92
:101B800000080140F809002050B20008200A002097
:101B900010B582B02B4B93F84430D3B901238DF8A4
:101BA000003000238DF80130019301F009FC254B32
:101BB0009B6BC01AB0F52F7F0FD801F001FC214BB1
:101BC0001864032283F82C20002283F82D209A63C6
:101BD00001E0FFF773FF02B010BD04238DF8013060
:101BE000184C002104F1280000F0BFFEA38CB4F8CB
:101BF00026C0634503D3618C228C91421BD0114CCB
:101C0000628C04EBC20E02A911E903008EE8030006
:101C1000013292FBFCF10CFB1122628401339BB276
:101C2000A3849C4501D2A4F824C0074800F0B5FE67
:101C3000FFF744FFCFE7013292FBFCF10CFB1122CE
:101C40002284DCE7F8090020200A002010B582B0C9
:101C50001F4B93F844308BBB1E4B93E8030002AB41
:101C600003E903001A4C002104F1280000F07DFE76
:101C7000A38CB4F826C0634503D3618C228C9142B7
:101C80001FD0134C628C04EBC20E02A911E90300B1
:101C90008EE80300013292FBFCF10CFB11226284FE
:101CA00001339BB2A3849C4501D2A4F824C00A4806
:101CB00000F073FEFFF702FF02B010BDFFF7FEFE5B
:101CC000FAE7013292FBFCF10CFB11222284D8E7E7
:101CD000F809002058B20008200A002008B507487B
:101CE00000210184418481840423C38481622022F1
:101CF00003F0F2FDFFF7E2FE08BD00BFF809002087
:101D000010B5002400E00134072C16D80C4B13F852
:101D100034200C4B93F82C309A42F4D1084B03EB4F
:101D2000C4035A78074B93F82D309A42EBD1044BF9
:101D300003EBC4035B689847E5E7FFF78BFD10BD35
:101D4000FCB20008F8090020F8B505460E46144616
:101D5000124F002107F1280000F007FEBB8CCBB129
:101D60003A8C07EBC20292E8030085E80300BA8CC4
:101D7000013A92B2BA8432803A8C0132F98C92FBE9
:101D8000F1F001FB10223A8401232370044800F093
:101D900004FEF8BD00232370F8E700BFF809002017
:101DA000200A00202DE9F04389B000240494059412
:101DB00006940794454B9A6942F010029A619A6919
:101DC00002F010020092009A9A6942F020029A6191
:101DD0009A6902F020020192019A9A6942F0040283
:101DE0009A619A6902F004020292029A9A6942F098
:101DF00008029A619B6903F008030393039BDFF8D1
:101E0000D09001224FF40051484601F010FE314EAF
:101E100001221021304601F00AFE2F4F22460121F7
:101E2000384601F004FE01224FF47071384601F08B
:101E3000FEFD4FF4005304930125059506944FF0E1
:101E40000208CDF81C8004A9484601F0D7FC04958F
:101E50000594CDF8188004A9304601F0CFFC10237A
:101E60000493059506954FF00309CDF81C900DEBF2
:101E70000301304601F0C2FC412304930595069509
:101E8000CDF81C8004A9384601F0B8FC4FF4E0639B
:101E900004930594069504A9304601F0AFFC4FF475
:101EA000004304930594069404A9304601F0A6FC6F
:101EB0004FF46073049305950694CDF81C9004A923
:101EC000384601F09BFC09B0BDE8F08300100240E9
:101ED0000010014000080140000C014008B5064A0E
:101EE0001368013313600121044801F0A6FDFFF7D8
:101EF00007FFFFF765FB08BDB00A0020000C01409A
:101F0000D0B584B001F05CFA124B1B68C31AB3F56C
:101F10007A7F01D204B0D0BD0E4B186002A8FFF743
:101F20007BFB0398FEF778FA06460F460A4C0298A8
:101F3000FEF772FACDE9000132463B4607492046DA
:101F400003F03AFD204603F059FD81B2204601F02E
:101F500093F9DFE7480A00204C0A002068B3000824
:101F600072B6FEE700B591B02822002106A803F062
:101F7000B3FC00230193029303930493059301227E
:101F800006924FF4803307930A9202220D920E9329
:101F90004FF4E0130F9306A801F06EFD80B90F23F4
:101FA000019302210291002303934FF48062049273
:101FB000059301A801F092FF20B911B05DF804FB70
:101FC000FFF7CEFFFFF7CCFF08B501F0DBF9FFF715
:101FD000C9FFFFF7E7FEFFF729FB00F0E9FF01F07B
:101FE000B9F800F0CFFB00F0ABFB0B4802F018FB98
:101FF00001F036F8FFF772FE00F05EFE00F07EF9A9
:1020000000F080F900F054F8FFF77AFF00F014F9BF
:1020100000F004F8F6E700BF8C1E002070B5002524
:102020002E4627E000F06AF9044600F067F9B0F8A0
:10203000003854F8236000F061F9B0F80438013B2F
:10204000A0F8043800F05AF9B0F8045800F056F936
:10205000B0F80048013400F051F9B0F8063894FBAC
:10206000F3F203FB124400F049F9A0F80048012400
:102070000EE0E5B100F042F9002100F6080000F0A2
:1020800074FC00F03BF9B0F80438002BCAD10024EE
:1020900000F034F900F6080000F07FFC002CE8D0D6
:1020A000304600F06DF9304603F0E6F8E1E770BD28
:1020B00030B589B001F084F93D4B1B68834275D07F
:1020C0003B4B18600023ADF816308DF8153008E052
:1020D0004FF40051374801F0B0FCBDF81630002B2A
:1020E00064D00DF115020DF1160106A8FFF72CFEC4
:1020F0009DF81530002BF0D09DF81800FFF7CAFCB2
:1021000005469DF81900FFF7CFFC03469DF81920FE
:10211000294CBDF8161002910799019100922A46A8
:102120002649204603F048FC204603F067FC81B2B4
:10213000204601F0A1F89DF81830012BCDD19DF873
:102140001930023B042BC8D801A252F823F000BF7B
:10215000D120000865210008DB2000089D2100082F
:10216000A5210008164C0121204601F066FC142030
:1021700000F0C2FF0121204601F05FFC114C124A21
:102180001249204603F018FC204603F037FC81B2C8
:10219000204601F071F800F01BF89EE7022000F0E5
:1021A00021F89AE7022000F031F896E709B030BD37
:1021B000B40A002000100140B80A00208CB30008C7
:1021C000000C0140E40B0020CCB30008D8B3000899
:1021D000034A1378B3FA83F35B091370704700BFA7
:1021E00004000020074B1B885BB11B1A9BB2054AF9
:1021F0001380502B02D9134600221A80024B012271
:102200001A8070474E0C00204C0C0020084B1B8895
:102210004F2B0BD803449BB2054A1380502B02D995
:10222000134650221A80034B01221A80704700BFC8
:102230004E0C00204C0C00202A4B1B78012B03D0A5
:10224000294B1B88002B4BD010B582B001F0B8F899
:10225000264B1B68C31A102B28D9244B1860244B1B
:102260001A88531E9BB24F2B22D9214C5023009326
:10227000002221881F4800F09DFD20884F2821D989
:10228000194B1B88012B0ED019490A88013292B2D2
:102290000A80194BA3FB02039B0903EBC30303EB67
:1022A000C303D31A0B80104B00221A8002B010BD5A
:1022B00040F2645300935023D2B20021084600F04C
:1022C00033FDD2E7C0B2C0F15002503040F2645347
:1022D00000935023D2B20021C0B200F025FDCFE719
:1022E000704700BF040000204C0C0020480C002068
:1022F0004E0C0020DCB30008E78745CA0048704751
:10230000E80C002048B370B505460024A0F800484A
:10231000A0F80248A0F804484FF40073A0F806386B
:10232000C0F808484FF40062214603F0D5FA4FF494
:1023300080663246214605F60C0003F0CDFAC5F85A
:102340000C6CA5F8104CA5F8124CC5F8144C00F014
:10235000CBF900F0CDF9204670BD012070474FF455
:102360008063C0F80C3C0023A0F8103CA0F8123C9D
:10237000C0F8143C704708B500F094F908BD00009F
:1023800010B584B0C389028A0C4C03920293D0F832
:102390000A300193D0F806300093D0F8023002885A
:1023A0000749204603F008FB204603F027FB81B2D3
:1023B000204600F061FF04B010BD00BF500C0020AB
:1023C000DCE50008F8B504460D46B0F8126CB1F82B
:1023D0000424B318112B22D9C6F11206B6B200F6A6
:1023E0000C07B0F8100C32463844FEF7CBFAB4F8BC
:1023F000103C3344A4F8103CB4F8123C3344A4F825
:10240000123C3146284600F085F9B4F8103C123BE6
:102410001F44C4F8147C104B01221A70F8BD00F65A
:102420000C00B4F8103CD1F800141844FEF7AAFAD6
:10243000B5F80434B4F8102C1344A4F8103CB5F8E3
:102440000434B4F8122C1344A4F8123CB5F8041464
:10245000284600F05FF9E1E7050000202DE9F04192
:102460000D4600F60C04B0F8103CB0F8122C9B1A84
:10247000E118012A07D0B0F8124C0CB3013CA4B209
:1024800000231E4634E0E35CBB2BF4D0013AA0F8F5
:10249000122C0023A0F8103CEDE7CA185278AA2AA3
:1024A0002CD12F4B00221A7056B10B5DBB2B07D0DD
:1024B000B0F8123C013BA0F8123C0023A0F8103CFD
:1024C000B0F8124CA4BBD5F80074B5F80434012B55
:1024D00019D0B5F804645EB3013EB6B24FF00008FF
:1024E0002EE0B0F8122C013AA0F8122C0133DBB226
:1024F0009AB2A242D8D2CA5CBB2ACED0621E934204
:10250000EFD10126EDE73B78BB2BE2D00121284635
:1025100000F000F9DDE73B195B78AA2B15D1104BD1
:1025200000221A70B8F1000F02D0BB5DBB2B12D194
:10253000BDE8F0810121284600F0ECF80134A4B296
:10254000B442EFD23B5DBB2BE5D0731E9C42F1D170
:102550004FF00108EEE70121284600F0DBF8E7E73D
:10256000050000202DE9F843D0F8146C002E46D069
:1025700004460D4632884AF6BB239A4236D1D6F835
:102580000230B3F5806F31D8D0F80C3CB0F8101C95
:102590005B1AB5F80424934233D3B4F8128CB5F81F
:1025A000042408EB0201D6F8023003F11200814244
:1025B00034D204F60C00B4F8103CD5F800141844DA
:1025C000FEF7E0F9B5F80434B4F8102C1344A4F87D
:1025D000103CB5F80434B4F8122C1344A4F8123C9F
:1025E000B5F80414284600F095F808E02C4B0322B7
:1025F0001A70284600F097F82046FFF7B0FEBDE8B5
:10260000F88300F60C00B4F8122C891A014403F088
:10261000E7F8B4F8123CA4F8103CBEE7A3EB0807B7
:10262000BFB21237BFB202F01FFE814642463146AA
:10263000FEF7A8F9B4F8120C3A46D5F8001448444D
:10264000FEF7A0F904F608060021304600F08DF9E7
:10265000B4F80438B4F806188B4212D2B4F8022841
:1026600044F82290013292FBF1F001FB1022A4F811
:10267000022801339BB2A4F80438994201D2A4F88D
:102680000418304600F089F92046FFF768FE394605
:10269000284600F03FF8024B03221A70AFE700BF54
:1026A0000500002070B506460D46284600F02CF8BF
:1026B000A0B9002401E00134E4B2022CF5D8084BA3
:1026C00013F83420074B1B789A42F4D1044B03EBE8
:1026D000C4035B68294630469847ECE770BD00BFED
:1026E00040E600080500002000487047001900205F
:1026F00010B504464FF48162002103F0EDF84FF469
:102700008063A4F8063410BDB0F80404B0FA80F079
:10271000400970474318C0F80034B0F80434591A1F
:10272000A0F80414704710B504464FF481620021EC
:1027300003F0D2F84FF48063A4F8063410BD000013
:1027400008B50E480E4B03604FF4827343600023BC
:102750008360C360036143614FF4007282610822A9
:10276000C2610362436283620A23C36201F01EFDF9
:1027700000B908BDFFF7F4FBFBE700BFD41D002044
:102780000030014008B50D480D4B03604FF48273D3
:10279000436000238360C360036143614FF40072B0
:1027A0008261C3610362436283620A23C36201F0F0
:1027B000FDFC00B908BDFFF7D3FBFBE72C1E002092
:1027C0000038004070B588B0044600230493059398
:1027D0000693079303684F4A934204D04E4A9342AC
:1027E0005BD008B070BD4D4B9A6942F480529A613B
:1027F0009A6902F480520092009A9A6942F00402A7
:102800009A619B6903F004030193019BA023049345
:102810000223059303230793414E04A9304600F099
:10282000EDFF4023049300250595069504A9304645
:1028300000F0E4FF3B483C4B03604560856080232B
:10284000C360056145618561C56100F055FEF0B961
:10285000344BE3645C623548354B036010234360BE
:10286000002383608022C260036143618361C3618E
:1028700000F042FE70B92D4BA3645C620022114649
:10288000232000F0C9FD232000F0FEFDA9E7FFF79B
:1028900067FBDDE7FFF764FBEDE7204BDA6942F405
:1028A0008042DA61DA6902F480420292029A9A69FD
:1028B00042F008029A619B6903F008030393039BAB
:1028C0004FF420430493022305930323079304A9A1
:1028D000184800F093FF1848184B0360102343601A
:1028E000002383608022C260036143618361C3610E
:1028F00000F002FE58B9104BA3645C62002211463E
:10290000242000F089FD242000F0BEFD69E7FFF7D8
:1029100027FBF0E700300140003800400010024083
:1029200000080140081D00201C0002404C1D002032
:1029300030000240000C0140901D00205800024071
:1029400050E8003F8B4205D140E80023002B01D125
:102950004FF001031846704708B501220021FFF728
:10296000EFFF003818BF012008BDF8B504460D463A
:1029700000F026FD07462046FFF7EEFF064650B959
:10298000002DF8D000F01CFDC01B4FF47A7305FB3E
:1029900003F39842EFD33046F8BD08B50022012179
:1029A000FFF7CEFF08BD000008B5094B834200D0F9
:1029B00008BD01224FF40071064801F038F8064BBB
:1029C00001221A700E21054800F056FCF0E700BF06
:1029D0002C1E0020000C0140841E002058E6000838
:1029E00000B583B08DF8070000228021064801F071
:1029F0001EF84FF0FF3301220DF10701034801F0EB
:102A000030FC03B05DF804FB000C01402C1E0020DC
:102A100000B583B08DF8070001228021064801F03F
:102A200006F84FF0FF3301220DF10701034801F0D2
:102A300018FC03B05DF804FB000C01402C1E0020C4
:102A400038B504460D4601228021054800F0EFFF0D
:102A50004FF0FF332A462146024801F002FC38BD00
:102A6000000C01402C1E002038B504460D46012202
:102A70008021054800F0DBFF4FF0FF332A46214656
:102A8000024801F0EEFB38BD000C01402C1E002076
:102A900010B50D4C01224FF48071204600F0C7FFA5
:102AA00000224FF48071204600F0C1FF642000F046
:102AB0008DFC01224FF48071204600F0B8FF782091
:102AC00000F084FC10BD00BF000C014010B5794C33
:102AD00000224FF40071204600F0A9FF1120FFF7FB
:102AE0007FFF782000F072FC2120FFF779FFB120F2
:102AF000FFF776FF0520FFF78BFF3A20FFF788FFEF
:102B00003A20FFF785FFB220FFF76AFF0520FFF7A5
:102B10007FFF3A20FFF77CFF3A20FFF779FFB320D1
:102B2000FFF75EFF0520FFF773FF3A20FFF770FF06
:102B30003A20FFF76DFF0520FFF76AFF3A20FFF705
:102B400067FF3A20FFF764FFB420FFF749FF032037
:102B5000FFF75EFFC020FFF743FF6220FFF758FF3B
:102B60000220FFF755FF0420FFF752FFC120FFF7B7
:102B700037FFC020FFF74CFFC220FFF731FF0D20C9
:102B8000FFF746FF0020FFF743FFC320FFF728FFB2
:102B90008D20FFF73DFF6A20FFF73AFFC420FFF7C3
:102BA0001FFF8D20FFF734FFEE20FFF731FFC52018
:102BB000FFF716FF0E20FFF72BFFE020FFF710FFB7
:102BC0001020FFF725FF0E20FFF722FF0220FFF75E
:102BD0001FFF0320FFF71CFF0E20FFF719FF072040
:102BE000FFF716FF0220FFF713FF0720FFF710FF84
:102BF0000A20FFF70DFF1220FFF70AFF2720FFF73B
:102C000007FF3720FFF704FF0020FFF701FF0D202B
:102C1000FFF7FEFE0E20FFF7FBFE1020FFF7F8FE89
:102C2000E120FFF7DDFE1020FFF7F2FE0E20FFF798
:102C3000EFFE0320FFF7ECFE0320FFF7E9FE0F2075
:102C4000FFF7E6FE0620FFF7E3FE0220FFF7E0FEB7
:102C50000820FFF7DDFE0A20FFF7DAFE1320FFF75A
:102C6000D7FE2620FFF7D4FE3620FFF7D1FE002046
:102C7000FFF7CEFE0D20FFF7CBFE0E20FFF7C8FEBC
:102C80001020FFF7C5FE3A20FFF7AAFE0520FFF748
:102C9000BFFE3620FFF7A4FE6020FFF7B9FE292013
:102CA000FFF79EFE01224FF40071204600F0BFFEA8
:102CB00010BD00BF000C014008B5FFF7E9FEFFF7AB
:102CC00005FF08BDF0B583B007460D4616461C4605
:102CD0002A20FFF785FE3B0A8DF8043001378DF876
:102CE0000570330A8DF8063001368DF8076004212F
:102CF0000DEB0100FFF7B8FE2B20FFF771FE2B0A4A
:102D00008DF800301A358DF80150230A8DF8023005
:102D10001A348DF8034004216846FFF7A5FE2C20E5
:102D2000FFF75EFE03B0F0BD2DE9F04F83B000AFBA
:102D300081468A4690461C46398E8618F6B2013E78
:102D4000F6B25344DBB2013BDBB27B6004FB02F220
:102D500053000733DB086846A0EBC3039D466D466E
:102D6000002303E025F8131001339BB29342F9DBF3
:102D7000DFF83CB000224FF40071584600F057FED7
:102D80007B68324651464846FFF79CFF08FB04F13A
:102D9000490089B22846FFF753FE01224FF4007123
:102DA000584600F044FE0C37BD46BDE8F08F00BF2A
:102DB000000C01402DE9F84F0746894692461C4613
:102DC000BDF828B0CD18ADB2013DADB202EB0B0697
:102DD000B6B2013EB6B2DFF8388000224FF400717F
:102DE000404600F024FE33462A4651464846FFF747
:102DF00069FF0BFB04F1490089B23846FFF734FE46
:102E000001224FF40071404600F011FEBDE8F88F3A
:102E1000000C014082B00E4B9A6942F001029A61A7
:102E20009A6902F001020092009ADA6942F0805237
:102E3000DA61DB6903F080530193019B054A536813
:102E400023F0E06343F00073536002B0704700BFAB
:102E50000010024000000140FEE7FEE7FEE7FEE74B
:102E6000FEE770477047704708B500F09DFA08BD4F
:102E700008B5024800F020FC08BD00BF081D002076
:102E800008B5024800F018FC08BD00BF4C1D00202A
:102E900008B5024800F010FC08BD00BF901D0020DE
:102EA00008B5024800F008FC08BD00BF1C1F002048
:102EB00008B5024801F0ECFB08BD00BF8C1E0020E5
:102EC00008B5024801F0B0FA08BD00BFD41D0020CB
:102ED00008B5024801F0A8FA08BD00BF2C1E00206A
:102EE00008B5024801F072FF08BD00BF601F002056
:102EF0000120704708B502F08DF9162303604FF0EA
:102F0000FF3008BD08B54FF0FF31FFF7F3FFFEE7D4
:102F100070B50C461646002506E0AFF3008021464A
:102F200001F8010B01350C46B542F6DB304670BDA9
:102F300070B50C461646002504E014F8010BAFF3FB
:102F400000800135B542F8DB304670BD4FF0FF30F0
:102F500070474FF400534B600020704701207047CA
:102F60000020704710B503460C4A0D490D48006813
:102F700040B10C4800680344521A934206D8094AEB
:102F8000136010BD0748084C0460F2E702F042F9F4
:102F90000C2303604FF0FF30F3E700BF0050002028
:102FA00000040000881E0020F81F00207047000069
:102FB00000B587B000230293039304930593009315
:102FC00001931548154A026041F61F424260836032
:102FD0000922C2600361836101F04CFC90B94FF497
:102FE0008053029302A90C4801F07CFC68B90023CD
:102FF000009301936946084801F0F4FC40B907B01A
:103000005DF804FBFEF7ACFFE9E7FEF7A9FFEEE78A
:10301000FEF7A6FFF3E700BF8C1E0020000800406B
:1030200002680E4B9A4200D0704700B583B003F59A
:103030000233DA6942F00402DA61DB6903F0040367
:103040000193019B002211461E2000F0E5F91E208D
:1030500000F01AFA03B05DF804FB00BF000800405E
:1030600030B589B000240494059406940794029422
:1030700003941D4BDA6942F00202DA61DB6903F066
:1030800002030193019B194D194B2B6000F0DCFFEB
:10309000184BA3FB00239B0C013B6B60AC604FF60D
:1030A000FF73EB602C61AC61284601F0E3FB88B94B
:1030B0004FF48053049304A90C4801F013FC60B949
:1030C00000230293039302A9084801F08BFC38B94E
:1030D00009B030BDFEF744FFEAE7FEF741FFEFE736
:1030E000FEF73EFFF4E700BF00100240D41E0020B0
:1030F0000004004083DE1B4310B5044672B6084846
:10310000036800225A6201F049FA054B1B685B6AAA
:10311000A342FAD3024801F06FFA62B610BD00BFB5
:10312000D41E002008B50348036800225A6201F04B
:1031300035FA08BDD41E002008B5024801F05CFA3B
:1031400008BD00BFD41E0020014B1B68586A7047A1
:10315000D41E002010B51248124B03604FF4E13327
:10316000436000238360C36003610C22426183617A
:10317000C36101F027FD78B9FFF7B6FAFFF7B8FA97
:10318000FFF7B2FA0446FFF7AFFAB0F8062421467B
:10319000034802F00DF810BDFEF7E2FEECE700BFB9
:1031A000601F00200044004070B586B000230293E9
:1031B0000393049305930268254B9A4201D006B00D
:1031C00070BD044603F5E633DA6942F40032DA6191
:1031D000DA6902F400320092009A9A6942F004021D
:1031E0009A619B6903F004030193019B04230293FA
:1031F0000223039303230593164E02A9304600F0E1
:10320000FDFA082302930025039504950DEB0301B5
:10321000304600F0F3FA1048104B036045608560BB
:103220008023C360056145618561C56100F064F973
:1032300058B9094BE3635C6200221146262000F076
:10324000EBF8262000F020F9B9E7FEF789FEF0E759
:1032500000440040000801401C1F00206C00024098
:10326000034B834200D07047024B01221A70FAE7E9
:10327000601F00200C00002008B50A46054B1B7893
:10328000002BFBD0034B002119700146024801F0CE
:10329000C9FC08BD0C000020601F0020124B8342B7
:1032A00000D0704710B50C46FFF71EFAA0F8044492
:1032B000FFF71AFA0446FFF717FAC0F80044FFF7C1
:1032C0001DF80446FFF710FA01462046FFF753F8B1
:1032D000FFF70AFA0446FFF707FAB0F8062421467A
:1032E000014801F065FF10BD601F0020FFF75EFE82
:1032F0000B480C490C4A002302E0D458C450043354
:10330000C4188C42F9D3094A094C002301E0136028
:103310000432A242FBD301F083FFFEF755FE704753
:1033200000000020C0090020A4EA0008C009002015
:10333000F41F0020FEE7000010B504460E4B18787D
:103340004FF47A73B3FBF0F30C4A1068B0FBF3F060
:1033500000F0A8F868B90F2C01D901200AE000227A
:1033600021464FF0FF3000F057F8054B1C6000205D
:1033700000E0012010BD00BF0D000020080000206B
:103380001000002008B5074A136843F010031360CB
:10339000032000F02FF80F20FFF7CEFFFFF73AFDD4
:1033A000002008BD00200240034A1168034B1B782F
:1033B0000B441360704700BFA81F00200D000020C1
:1033C000014B1868704700BFA81F002038B504469D
:1033D000FFF7F6FF0546B4F1FF3F02D0044B1B7820
:1033E0001C44FFF7EDFF401BA042FAD338BD00BFDD
:1033F0000D000020074AD36823F4E0631B041B0C74
:10340000000200F4E060034343F0BF6343F4003381
:10341000D360704700ED00E000B5194BDB68C3F3E3
:103420000223C3F1070CBCF1040F28BF4FF0040CBA
:1034300003F1040EBEF1060F18D9033B4FF0FF3E17
:103440000EFA0CFC21EA0C0199400EFA03F322EA71
:103450000303194300280BDB0901C9B200F16040E6
:1034600000F5614080F800135DF804FB0023E5E7F8
:1034700000F00F000901C9B2024B1954F4E700BF74
:1034800000ED00E014ED00E0002807DB00F01F0273
:10349000400901239340024A42F82030704700BFA0
:1034A00000E100E00138B0F1807F0BD24FF0E02363
:1034B0005861054AF02182F8231000209861072204
:1034C0001A6170470120704700ED00E030B401241C
:1034D000056CAC40C56B6C60046863604368102B7E
:1034E00005D0036899600368DA6030BC70470368F0
:1034F0009A600368D960F8E760B310B402460168C7
:10350000154B0B441548A0FB03031B099B001364D8
:10351000134BD363022382F82130086820F47F50D4
:1035200020F03000536894682343D468234314691F
:1035300023435469234394692343D46923430343B6
:103540000B6000209063012382F8213082F8200074
:1035500010BC704701207047F8FFFDBFCDCCCCCC2C
:103560000000024038B5044690F82000012832D00F
:10357000012084F8200094F82100C0B2012804D072
:10358000002384F82030022038BD022084F8210076
:103590000020A0632568286820F0010028602046EC
:1035A000FFF794FFE36A5BB12268136843F00E03F0
:1035B00013602268136843F0010313600020E3E7FF
:1035C0002268136823F0040313602268136843F031
:1035D0000A031360EDE70220D6E790F82130DBB252
:1035E000022B06D004238363002380F820300120BF
:1035F00070470268136823F00E03136002681368B3
:1036000023F001031360036CC16B012202FA03F380
:103610004B6080F82120002380F820301846704746
:1036200008B590F82130DBB2022B03D0042383636A
:10363000012008BD0268136823F00E0313600268BE
:10364000136823F0010313600368194A934214D0EE
:10365000143293421FD0143293421ED0143293423C
:103660001ED0143293421ED01432934202D04FF037
:10367000807203E04FF4801200E001220D4B5A608B
:10368000012380F82130002380F82030436B6BB198
:1036900098470020CDE71022F0E74FF48072EDE765
:1036A0004FF48052EAE74FF48032E7E70020C0E7AA
:1036B000080002400000024038B5C36B1A68046875
:1036C0002568016C04238B40134235D015F0040F9C
:1036D00032D0236813F0200F03D1236823F00403B2
:1036E00023600368434A934214D01432934218D0A3
:1036F0001432934217D01432934217D014329342AB
:1037000017D01432934202D04FF0806203E04FF49E
:10371000800200E00422384B5A60C36A03B1984724
:1037200038BD4022F7E74FF48062F4E74FF480425F
:10373000F1E74FF48022EEE702238B4013423CD0A6
:1037400015F0020F39D0236813F0200F06D123683B
:1037500023F00A032360012380F821300368254AFF
:10376000934214D0143293421CD0143293421BD093
:10377000143293421BD0143293421BD01432934222
:1037800002D04FF0007203E04FF4001200E002227A
:10379000194B5A60002380F82030836A002BBFD079
:1037A0009847BDE72022F3E74FF40072F0E74FF4AB
:1037B0000052EDE74FF40032EAE7082303FA01F183
:1037C0001142ADD015F0080FAAD0236823F00E03E4
:1037D0002360026CC16B012303FA02F24A60836327
:1037E00080F82130002380F82030036B002B97D025
:1037F000984795E7080002400000024070B582B08B
:103800000024A446A6E0804DAA4210D007D97F4DDF
:10381000AA420CD005F58035AA4208D013E0A5F5E0
:103820008015AA4203D005F57025AA4207D18A68FF
:10383000002A58D0012A51D04361082403E0A5F59D
:103840008015AA42F3D0BEF1FF0F4ED80646BEF156
:10385000FF0F4CD84FEA8C0233680F25954023EABE
:10386000050304FA02F2134333604B6813F0805FE0
:103870006ED0674B9A6942F001029A619B6903F02E
:1038800001030193019B4FEA9C02951C614B53F885
:1038900025600CF003039D000F23AB4026EA0306CE
:1038A0005D4B984229D003F58063984200F08E80EA
:1038B00003F58063984200F08B8003F580639842A3
:1038C00019D004231AE0CC68BDE7CC680434BAE709
:1038D000CC680834B7E7CC680C34B4E7036108243B
:1038E000B1E70024AFE70424ADE7061DAFE7ACF174
:1038F00008029200B0E7032300E00023AB4033430B
:103900000232444D45F822304B6813F4801F61D0D9
:10391000424A936843EA0E0393604B6813F4001F16
:103920005ED03E4AD36843EA0E03D3604B6813F47B
:10393000003F5BD0394A536843EA0E0353604B683B
:1039400013F4803F58D0354A136843EA0E031360DE
:103950000CF1010C0A6832FA0CF353D0012303FA7C
:103960000CF302EA030E33EA0202F1D14A68122A8A
:103970003FF649AF122A3FF666AF01A555F822F08F
:103980002F380008C7380008D1380008E33800088D
:10399000473800084738000847380008473800080B
:1039A00047380008473800084738000847380008FB
:1039B00047380008473800084738000847380008EB
:1039C00047380008CB380008D7380008012395E7AE
:1039D000022393E7114A936823EA0E0393609CE75E
:1039E0000E4AD36823EA0E03D3609FE70B4A53685D
:1039F00023EA0E035360A2E7084A136823EA0E0382
:103A00001360A5E702B070BD000022100000311065
:103A10000010024000000140000801400004014085
:103A20008368194201D001207047002070470AB115
:103A300001617047090401617047C36801EA03022C
:103A400021EA030141EA02410161704782B0084B5B
:103A50001B68084AA2FB03235B0A00FB03F30193E4
:103A600000BF019B5A1E0192002BF9D102B0704792
:103A700008000020D34D6210002800F0F18170B5DD
:103A800082B00446036813F0010F2CD0994B5B6899
:103A900003F00C03042B1DD0964B5B6803F00C0362
:103AA000082B12D06368B3F5803F41D0002B55D16D
:103AB00003F1804303F504331A6822F480321A605C
:103AC0001A6822F480221A6037E08A4B5B6813F48C
:103AD000803FE7D0874B1B6813F4003F03D0636837
:103AE000002B00F0BF81236813F0020F75D0814BCB
:103AF0005B6813F00C0F5FD07E4B5B6803F00C0328
:103B0000082B54D02369002B00F08A807A4B0122C5
:103B10001A60FFF755FC0546764B1B6813F0020F41
:103B200075D1FFF74DFC401B0228F5D903209EE11B
:103B3000704A136843F480331360636843B3FFF73C
:103B40003FFC05466B4B1B6813F4003FCBD1FFF7DE
:103B500037FC401B6428F5D9032088E1B3F5A02F7A
:103B600009D0644B1A6822F480321A601A6822F471
:103B700080221A60E1E703F18043A3F53C331A6821
:103B800042F480221A601A6842F480321A60D4E744
:103B9000FFF716FC0546574B1B6813F4003FA2D0F5
:103BA000FFF70EFC401B6428F5D903205FE1514B61
:103BB0005B6813F4803FA5D14E4B1B6813F0020FD6
:103BC00003D02369012B40F04F814A4A136823F048
:103BD000F803616943EAC1031360236813F0080F17
:103BE00033D0A369002B5CD0434B0122C3F880245F
:103BF000FFF7E6FB05463F4B5B6A13F0020F21D14E
:103C0000FFF7DEFB401B0228F5D903202FE1394ADC
:103C1000136823F0F803616943EAC1031360DCE72A
:103C2000354B00221A60FFF7CBFB0546314B1B6872
:103C300013F0020FD1D0FFF7C3FB401B0228F5D9C8
:103C4000032014E10120FFF701FF236813F0040FA4
:103C500000F09680274BDB6913F0805F34D1254B51
:103C6000DA6942F08052DA61DB6903F08053019334
:103C7000019B0125214B1B6813F4807F26D0E3684C
:103C8000012B3DD0002B53D103F1804303F50433C6
:103C90001A6A22F001021A621A6A22F004021A62F7
:103CA00033E0154B0022C3F88024FFF789FB05465B
:103CB000104B5B6A13F0020FC7D0FFF781FB401B6C
:103CC0000228F5D90320D2E00025D3E70B4A136878
:103CD00043F480731360FFF773FB0646074B1B68C2
:103CE00013F4807FCBD1FFF76BFB801B6428F5D9E1
:103CF0000320BCE00010024000004242007000407F
:103D00005F4A136A43F001031362E36833B3FFF7BA
:103D100057FB06465A4B1B6A13F0020F2FD1FFF7D1
:103D20004FFB801B41F288339842F3D903209EE079
:103D3000052B09D0524B1A6A22F001021A621A6A44
:103D400022F004021A62E0E74D4B1A6A42F00402C4
:103D50001A621A6A42F001021A62D6E7FFF730FBD4
:103D60000646474B1B6A13F0020F08D0FFF728FBEB
:103D7000801B41F288339842F3D9032077E0E5B9FC
:103D8000E369002B72D03E4A526802F00C02082A06
:103D900056D0022B17D03B4B00221A66FFF710FBC0
:103DA0000446374B1B6813F0007F47D0FFF708FB32
:103DB000001B0228F5D9032059E0314AD36923F0CA
:103DC0008053D361DCE72F4B00221A66FFF7F8FA25
:103DD00005462B4B1B6813F0007F06D0FFF7F0FA67
:103DE000401B0228F5D9032041E0236AB3F5803F48
:103DF0001AD023494B6823F47413226A606A024381
:103E000013434B601F4B01221A66FFF7D9FA044691
:103E10001B4B1B6813F0007F0ED1FFF7D1FA001B7C
:103E20000228F5D9032022E0154A536823F4003311
:103E3000A1680B435360DCE7002018E0002016E087
:103E4000012B16D00E4B5B6803F48031226A91423D
:103E500011D103F47013626A93420ED1002006E080
:103E600001207047012002E0012000E0002002B0A4
:103E700070BD0120FBE70120F9E70120F7E700BF53
:103E800000100240000042420F4B5B6803F00C023E
:103E9000082A01D00D487047C3F383420C49885C5F
:103EA00013F4803F0BD0084B5B68C3F34043094ACF
:103EB000D35C064A02FB00F0B0FBF3F07047064B00
:103EC00003FB00F0704700BF0010024000127A00B0
:103ED00080E6000890E6000800093D00002800F098
:103EE000A08070B50D460446524B1B6803F00703D3
:103EF0008B420BD24F4A136823F007030B43136026
:103F0000136803F007038B4240F08D80236813F0A1
:103F1000020F17D013F0040F04D0474A536843F43C
:103F2000E0635360236813F0080F04D0424A5368DB
:103F300043F460535360404A536823F0F003A16890
:103F40000B435360236813F0010F31D06368012BDA
:103F500020D0022B25D0384A126812F0020F64D00C
:103F600035494A6822F0030213434B60FFF728FAF1
:103F70000646314B5B6803F00C036268B3EB820FBB
:103F800016D0FFF71DFA801B41F288339842F0D912
:103F9000032045E0284A126812F4003FE0D10120D6
:103FA0003EE0254A126812F0007FD9D1012037E0A7
:103FB000204B1B6803F00703AB420AD91D4A136864
:103FC00023F007032B431360136803F00703AB428E
:103FD0002DD1236813F0040F06D0174A536823F439
:103FE000E063E1680B435360236813F0080F07D0C8
:103FF000114A536823F46053216943EAC1035360B3
:10400000FFF742FF0C4B5B68C3F303130B4AD35C0F
:10401000D8400B4B18600B4B1868FFF78DF9002048
:1040200070BD012070470120FAE70120F8E7012068
:10403000F6E700BF002002400010024068E60008DA
:104040000800002010000020014B1868704700BFD6
:104050000800002008B5FFF7F7FF044B5B68C3F3C7
:104060000223034AD35CD84008BD00BF00100240C1
:1040700078E6000808B5FFF7E7FF044B5B68C3F379
:10408000C223034AD35CD84008BD00BF00100240E1
:1040900078E600082DE9F04782B0054688461746C5
:1040A0001E46FFF78DF90A9B1B1A03EB0609FFF763
:1040B00087F982462B4B1B68C3F3CB3309FB03F311
:1040C00001932B689C6838EA04030CBF4FF0010C85
:1040D0004FF0000CBC4540D0B6F1FF3FF1D0FFF7E8
:1040E0006FF9A0EB0A0048450AD2B9F1000F07D0DA
:1040F000019A02B14A46019B013B01939146E0E7D8
:104100002A68536823F0E00353606B68B3F5827F3D
:104110000BD0AB6AB3F5005F14D0012385F85130A2
:10412000002385F85030032018E0AB68B3F5004F4A
:1041300002D0B3F5806FECD12A68136823F04003F6
:104140001360E6E72A68136823F4005313602A68B3
:10415000136843F400531360DFE7002002B0BDE8AA
:10416000F08700BF0800002070B582B006460C46FC
:10417000154600920B4601220221FFF78BFF48B93A
:1041800000952346002280213046FFF783FF38B98F
:1041900002B070BD736D43F0200373650320F7E731
:1041A000736D43F0200373650320F1E7002856D0B8
:1041B00010B50446436A33B94368B3F5827F05D02E
:1041C0000023C36102E00023036143610023A36273
:1041D00094F85130002B3CD0022384F851302268EF
:1041E000136823F040031360636803F48273A268CA
:1041F00002F404421343E26802F4006213432269AA
:1042000002F002021343626902F001021343A26941
:1042100002F400721343E26902F038021343226A87
:1042200002F080021343A26A02F400522168134391
:104230000B60638B226803F0040353602268D36928
:1042400023F40063D36100206065012384F85130BA
:1042500010BD84F850302046FEF7B4FABCE70120C8
:1042600070472DE9F04383B00446894690461D46C9
:10427000FFF7A6F894F85160F6B2012E40F0CC801A
:104280000746B9F1000F00F0C880B8F1000F00F048
:10429000C48094F85030012B00F0C380012384F8CF
:1042A0005030032384F8513000236365C4F8309004
:1042B000A4F83480A4F83680A363A387E3876364FB
:1042C0002364A368B3F5004F1ED023681A6812F068
:1042D000400F03D11A6842F040021A60E368B3F558
:1042E000006F1CD0636813B1B8F1010F5FD1226B6E
:1042F000236812781A73236B01332363E38E9BB216
:10430000013B9BB2E38652E02268136823F040032E
:1043100013602268136843F480431360D5E7636831
:1043200013B1B8F1010F15D1226B23681288DA603E
:10433000236B02332363E38E9BB2013B9BB2E38684
:1043400008E0FFF73DF8C01BA84202D3B5F1FF3FDC
:1043500015D1A5B1E38E9BB2002B42D023689A6899
:1043600012F0020FEDD0226B1288DA60236B023359
:104370002363E38E9BB2013B9BB2E386EAE7012312
:1043800084F85130002384F85030032645E0226B36
:1043900012781A73236B01332363B4F836C01FFA03
:1043A0008CFC0CF1FF3C1FFA8CFCA4F836C0E38EA9
:1043B0009BB2B3B123689A6812F0020FE7D1FEF7FF
:1043C000FFFFC01BA84202D3B5F1FF3F01D1002D72
:1043D000EDD1012384F85130002384F850300326B6
:1043E0001BE03A4629462046FFF7BEFE08B12023CF
:1043F0006365A36833B901932368DA6801929B6807
:104400000193019B012384F85130002384F850303C
:10441000636D13B9002600E00226304603B0BDE804
:10442000F0830226F9E7000030B585B00446026843
:1044300051689368C3F3801013F0400F05D113F057
:10444000010F02D011F0400F5AD113F0020F02D029
:1044500011F0800F58D1C3F3401513F0200F01D194
:10446000002854D011F0200F51D078B194F8513079
:10447000DBB2032B4DD0636D43F00403636500236F
:104480000193D368019393680193019B65B1636DB8
:1044900043F0010363650023039393680393136858
:1044A00023F040031360039B636D002B2FD0226821
:1044B000536823F0E0035360012384F8513011F076
:1044C000030F2ED02268536823F003035360E36C7C
:1044D0004BB1164A5A63E06CFFF7A2F818B1636D4E
:1044E00043F040036365A36C8BB1104A5A63A06C20
:1044F000FFF796F858B1636D43F04003636506E03B
:10450000236C2046984702E0636C2046984705B02C
:1045100030BD00230293D368029393680293029BF9
:10452000F5E72046FEF740FAF1E700BF3145000805
:1045300008B5406A0023C387C386FEF735FA08BD75
:1045400010B4036A046A24F001040462846924F04C
:10455000F00C4CEA021223F00A030B43826103625F
:1045600010BC704710B4036A046A24F0100404629B
:10457000846924F4704C4CEA023223F0A00343EA2D
:1045800001138261036210BC7047836823F07003DB
:104590000B4343F0070383607047000090F83D3001
:1045A000DBB2012B22D1022380F83D300368114A8F
:1045B000934210D0B3F1804F0DD0A2F594329342C4
:1045C00009D002F58062934205D01A6842F00102D8
:1045D0001A60002070479A6802F00702062A07D086
:1045E0001A6842F001021A600020704701207047EB
:1045F00000207047002C01400368196A41F2111233
:10460000114208D1196A40F24442114203D11A689A
:1046100022F001021A60012380F83D30002070472B
:1046200090F83D30DBB2012B27D1022380F83D30DA
:104630000268D36843F00103D3600368114A9342D0
:1046400010D0B3F1804F0DD0A2F59432934209D02F
:1046500002F58062934205D01A6842F001021A60A6
:10466000002070479A6802F00702062A07D01A68ED
:1046700042F001021A6000207047012070470020BC
:10468000704700BF002C014070477047704770476B
:1046900070B504460368DE681D6915F0020F10D07E
:1046A00016F0020F0DD06FF002021A61012303779A
:1046B00003689B6913F0030F5ED0FFF7E6FF00234A
:1046C000237715F0040F12D016F0040F0FD02368D3
:1046D0006FF004021A610223237723689B6913F4A5
:1046E000407F4FD02046FFF7D0FF0023237715F0FF
:1046F000080F12D016F0080F0FD023686FF00802D1
:104700001A61042323772368DB6913F0030F40D079
:104710002046FFF7BAFF0023237715F0100F12D0C1
:1047200016F0100F0FD023686FF010021A610823E3
:1047300023772368DB6913F4407F31D02046FFF7ED
:10474000A4FF0023237715F0010F02D016F0010F0C
:104750002DD115F0800F02D016F0800F2FD115F05B
:10476000400F02D016F0400F31D115F0200F02D0CB
:1047700016F0200F33D170BDFFF786FF2046FFF7FC
:1047800085FF9CE72046FFF77FFF2046FFF77EFF6F
:10479000ABE72046FFF778FF2046FFF777FFBAE741
:1047A0002046FFF771FF2046FFF770FFC9E7236837
:1047B0006FF001021A612046FDF790FBC9E72368FC
:1047C0006FF080021A61204600F043F9C7E72368C2
:1047D0006FF040021A612046FFF759FFC5E72368D2
:1047E0006FF020021A61204600F032F9C3E70000A2
:1047F00003681F4A90420AD0B0F1804F07D0A2F55B
:104800009432904203D002F58062904203D123F0AB
:1048100070034A681343164A90420AD0B0F1804FA1
:1048200007D0A2F59432904203D002F58062904204
:1048300003D123F44073CA68134323F080034A6909
:10484000134303608B68C3620B688362084B984212
:104850000AD001234361036913F0010F03D00369F8
:1048600023F00103036170470B690363F1E700BFA5
:10487000002C014040B310B5044690F83D30F3B130
:10488000022384F83D30214651F8040BFFF7B0FFB6
:10489000012384F8463084F83E3084F83F3084F8B1
:1048A000403084F8413084F8423084F8433084F852
:1048B000443084F8453084F83D30002010BD80F845
:1048C0003C30FEF7ADFBDBE70120704710B4846895
:1048D00024F47F4C42EA03220A4342EA0C0282603B
:1048E00010BC704790F83C30012B78D010B50446CE
:1048F000012380F83C30022380F83D300268936841
:1049000023F47F4323F0770393600B68602B4CD034
:1049100029D8402B54D00CD9502B22D1CA684968D1
:104920000068FFF70DFE50212068FFF72EFE0020E3
:1049300005E0202B0DD009D9302B0AD0012001230E
:1049400084F83D30002384F83C3010BD0BB1102BAF
:1049500005D119462068FFF718FE0020EFE7012077
:10496000EDE70120EBE7B3F5805F34D0B3F5005FEE
:104970000CD1CB684A6889680068FFF7A7FF2268F6
:10498000936843F4804393600020D8E7702B24D1D0
:10499000CB684A6889680068FFF798FF22689368C7
:1049A00043F0770393600020C9E7CA68496800684C
:1049B000FFF7D8FD60212068FFF7E7FD0020BEE784
:1049C000CA6849680068FFF7BBFD40212068FFF70F
:1049D000DCFD0020B3E70020B1E70120AFE70220B3
:1049E0007047000090F83C30012B2CD010B401230C
:1049F00080F83C30022380F83D3003685A689C6898
:104A000022F0700C0A6842EA0C025A6003680F4AEE
:104A100093420AD0B3F1804F07D0A2F5943293426B
:104A200003D002F58062934204D124F080044A68E6
:104A300014439C60012380F83D30002380F83C3013
:104A4000184610BC70470220704700BF002C014080
:104A500070477047026802F10C0353E8003F23F0EF
:104A6000C0030C3242E800310029F3D1202380F842
:104A700041307047026802F10C0353E8003F23F411
:104A800090730C3242E800310029F3D1026802F140
:104A9000140353E8003F23F00103143242E80031CD
:104AA0000029F3D1036B012B05D0202380F842307D
:104AB000002303637047026802F10C0353E8003FD0
:104AC00023F010030C3242E800310029F3D1ECE767
:104AD00090F84130DBB2212B01D00220704783686F
:104AE000B3F5805F17D0036A5A1C02621A78036814
:104AF0005A60C38C9BB2013B9BB2C3844BB9026822
:104B0000D36823F08003D3600268D36843F0400386
:104B1000D360002070470369002BE4D1036A1B882F
:104B20000268C3F308035360036A02330362E0E7D9
:104B300010B504460268136923F44053C1680B435F
:104B4000136183680269134342691A430168CB68A1
:104B500023F4B05323F00C031343CB600268536972
:104B600023F4407381690B4353610268134B9A42EB
:104B700020D0FFF76FFA024602EB820202EB8202BC
:104B800063689B00B2FBF3F20D48A0FB02314909B8
:104B9000642303FB11231B013233A0FB03235B09B6
:104BA00003F0F00202EB011203F00F03216813443B
:104BB0008B6010BDFFF75EFA0246DDE7003801406A
:104BC0001F85EB5160B310B5044690F8413013B324
:104BD000242384F841302268D36823F40053D3603F
:104BE0002046FFF7A5FF2268136923F49043136161
:104BF0002268536923F02A0353612268D36843F47F
:104C00000053D36000206064202384F8413084F88E
:104C10004230606310BD80F84030FEF7C5FAD7E738
:104C20000120704790F84130DBB2202B10D189B1C0
:104C300092B101628284C28400234364212280F8FD
:104C400041200168CA6842F08002CA601846704775
:104C500002207047012070470120704708B50168A5
:104C6000CA6822F04002CA60202280F84120FEF784
:104C7000F7FA002008BD70477047704710B5446AC6
:104C800023685A6994F84130DBB2212B10D0236895
:104C90005A6902F0400294F84230DBB2222B11D064
:104CA000636C43F0100363642046FFF7E6FF10BD1A
:104CB00002F08002002AEAD00023E3842046FFF7B6
:104CC000C9FEE4E7002AEBD00023E3852046FFF786
:104CD000D1FEE5E708B5406A0023C385C384FFF72A
:104CE000CCFF08BD90F84230DBB2222B69D183683B
:104CF000B3F5805F4FD0826AB3F5805F04D0002B9C
:104D000056D10369002B53D103685B681370836A23
:104D100001338362C38D9BB2013B9BB2C385002BE1
:104D200051D100B583B00268D36823F02003D3606B
:104D30000268D36823F48073D3600268536923F058
:104D400001035361202380F8423000234363036B47
:104D5000012B33D100230363026802F10C0353E8F3
:104D6000003F23F010030C3242E800310029F3D158
:104D700003681A6812F0100F06D0002201921A6818
:104D800001925B680193019B818DFEF787FA0020F9
:104D900003B05DF804FB0269002AACD1826A0368A3
:104DA0005B68C3F308031380836A02338362B1E74D
:104DB00003685B6803F07F031370A8E7FFF75BFFEE
:104DC000E5E70220704700207047000030B583B04F
:104DD000044602681368D068516913F00F0505D1C5
:104DE00013F0200F02D010F0200F19D12DB111F0C7
:104DF000010119D110F4907F16D1216B01297DD0CA
:104E000013F0800F03D010F0800F40F0188113F0E2
:104E1000400F03D010F0400F40F0158103B030BDBB
:104E20002046FFF75FFFF9E713F0010F06D010F4FB
:104E3000807F03D0626C42F00102626413F0040FC1
:104E400004D019B1626C42F00202626413F0020FE6
:104E500004D019B1626C42F00402626413F0080FCE
:104E600007D010F0200F00D119B1626C42F0080297
:104E70006264626C002AD1D013F0200F02D010F0CF
:104E8000200F29D123685B6903F04003626C12F0A4
:104E9000080F00D163B32046FFF7ECFD23685B6980
:104EA00013F0400F20D0226802F1140353E8003FB2
:104EB00023F04003143242E800310029F3D1E36BC0
:104EC00073B1634A5A63E06BFEF7AAFB0028A5D0D2
:104ED000E06B436B9847A1E72046FFF703FFD1E75C
:104EE0002046FFF7CAFE99E72046FFF7C6FE95E782
:104EF0002046FFF7C2FE002363648FE713F0100F14
:104F00003FF47EAF10F0100F3FF47AAF002301930F
:104F10001368019353680193019B536913F0400F89
:104F200051D0E26B13685B689BB2002B3FF476AF05
:104F3000A18D99427FF672AFE3859369202B37D01C
:104F4000226802F10C0353E8003F23F480730C3213
:104F500042E800310029F3D1226802F1140353E83A
:104F6000003F23F00103143242E800310029F3D15D
:104F7000226802F1140353E8003F23F04003143287
:104F800042E800310029F3D1202384F84230002385
:104F90002363226802F10C0353E8003F23F010035F
:104FA0000C3242E800310029F3D1E06BFEF715FB2B
:104FB00002236363A18DE38D9BB2C91A89B2204697
:104FC000FEF76CF92AE7A18DE38D9BB2C91A89B26D
:104FD000E38D9BB2002B3FF421AF00293FF41EAFBD
:104FE000226802F10C0353E8003F23F490730C3263
:104FF00042E800300028F3D1226802F1140353E89C
:10500000003F23F00103143242E800300028F3D1BE
:10501000202384F8423000232363226802F10C032A
:1050200053E8003F23F010030C3242E80030002820
:10503000F3D1022363632046FEF730F9EEE6204603
:10504000FFF746FDEAE62046FFF708FEE6E600BF6A
:10505000D54C000808B5406A01234363036B012B5C
:1050600002D0FFF709FE08BD818D4908FEF716F949
:10507000F9E708B50346406A1B681B6813F0200F68
:105080002BD10023C385026802F10C0353E8003FD3
:1050900023F480730C3242E800310029F3D1026816
:1050A00002F1140353E8003F23F00103143242E8F5
:1050B00000310029F3D1026802F1140353E8003FE4
:1050C00023F04003143242E800310029F3D12023B9
:1050D00080F84230036B012B07D000234363036B3E
:1050E000012B0FD0FFF7C7FD08BD026802F10C03CA
:1050F00053E8003F23F010030C3242E8003100294E
:10510000F3D1EAE7818DFEF7C9F8EDE730B583B05A
:10511000044613468162828500254564222280F878
:105120004220C26B1F489062E26B1F48D062E26B64
:105130001E481063E26B556320680A46011DE06B50
:10514000FEF710FA019523681A6801925B680193D3
:10515000019B23695BB1226802F10C0353E8003F15
:1051600043F480730C3242E800310029F3D1226805
:1051700002F1140353E8003F43F00103143242E804
:1051800000310029F3D1226802F1140353E8003FF3
:1051900043F04003143242E800310029F3D10020EB
:1051A00003B030BD73500008555000087D4C000816
:1051B00090F84230DBB2202B27D110B582B00446E4
:1051C00029B312B9012002B010BD012303630023EB
:1051D0004363FFF79BFF236B012B01D00120F2E714
:1051E0000023019323681A6801925B680193019B75
:1051F000226802F10C0353E8003F43F010030C3225
:1052000042E800310029F3D1DDE702207047012098
:10521000D9E70000014B1868704700BF1400002058
:1052200070B50D4E0D4D761BB61006D0002455F806
:10523000043B01349847A642F9D1094E094D05F0C7
:10524000F5FF761BB61006D0002455F8043B013458
:105250009847A642F9D170BD98EA000898EA00087C
:10526000A0EA000898EA0008024B0146186800F01E
:105270000BB800BF14000020024B0146186803F071
:10528000AFB900BF140000202DE9F04F01F10B056C
:10529000162D064683B025D8102900F2B88000F0FC
:1052A0006DFB102518224FF0020CB54F3A4453689D
:1052B000A2F108018B4200F0B7805A68D96822F049
:1052C00003021A449C683046E1608C60516803F127
:1052D000080441F00101516000F056FB204603B084
:1052E000BDE8F08F35F0070500F19180A94200F28A
:1052F0008E8000F043FBB5F5FC7FC0F094816B0A13
:1053000000F08C80042B00F26A81AB0903F1390CA8
:1053100003F138044FEACC00994F38444368083809
:10532000984206D10CE0002980F22681DB68984281
:1053300006D05A6822F00302511B0F29F3DDA44660
:105340003C69DFF840E274457AD0626822F00302DB
:10535000531B0F2B00F37681002BC7E904EE80F27C
:105360006781B2F5007F80F019810121D3085209CD
:105370000B4491407A6857F833000A4307EBC301A6
:105380000839A060E1607A6047F83340C4600121C9
:105390004FEAAC039940914259D8114206D12CF002
:1053A000030C490011420CF1040CFAD007EBCC09B4
:1053B00048466446D0F80C80404508D11CE1002BDB
:1053C00080F22181D8F80C80404500F01581D8F892
:1053D000042022F00302531B0F2BF0DD08EB050124
:1053E00045F00105C8F804503046D8E90264F4607D
:1053F000A66043F00104C7E904114C60C1E902EE64
:1054000048F8023000F0C0FA08F1080402E00C236A
:1054100000243360204603B0BDE8F08F4FF40070E5
:105420004FF0400C3F2477E7D3689A4208BF0CF155
:10543000020C7FF442AF3C69DFF848E1744584D147
:1054400001217A684FEAAC0399409142A5D9BC6822
:10545000636823F003094D4503D8A9EB05030F2B1F
:105460007ADCDFF824B1494BDBF800201B680132FD
:105470002B4404EB090A00F02F8103F580530F330E
:1054800023F47F6828F00F084146304600F082FA86
:10549000411C024600F0EF80824500F2EA803C4B5E
:1054A000196841440846196000F04981DBF8001092
:1054B000019301311BBFA2EB0A0A5044CBF8002034
:1054C000186012F0070B00F01181CBF108010A44BB
:1054D000CBF5805190440831A1EB0801C1F30B0AD0
:1054E00051463046009200F055FA421CDDE9002397
:1054F00000F04B81801A00EB0A08196848F001009F
:105500005144BC42BA601960506000F02481B9F186
:105510000F0F40F222814FF0050E6068A9F10C0CCC
:105520002CF0070C00F0010040EA0C006060BCF1B8
:105530000F0F04EB0C00C0E901EE00F22E811446BF
:105540005068144B1A688A4238BF1960124B1A68A7
:105550008A4238BF196090E0621943F0010345F0B8
:10556000010565603046BA600834536000F00CFAFB
:10557000204603B0BDE8F08FD9681A44A2E600BF08
:10558000400400204804002048080020DC1F0020C0
:10559000AC1F0020D41F0020D81F0020B2F5206FC0
:1055A0004FEA52235FD3142B00F2B18003F15C0168
:1055B000C9005B33781879580838884200F08F802A
:1055C0004B6823F00303934202D989688842F7D1DC
:1055D000C8687A68C4E902108460CC60D7E6142BEE
:1055E00059D9542B00F29B802B0B03F16F0C03F164
:1055F0006E044FEACC008FE60134A30700F10800E7
:105600007FF4D8AE53E0444642445368D8F80C10B7
:1056100043F00103536054F8083F3046D9608B6073
:1056200000F0B2F9F6E64FEAD50C05F108023CE6C7
:1056300022445368304643F00103536000F0A4F95C
:105640000834E7E6611945F00105656043F001059E
:10565000C7E904113046C1E902EE4D60A35000F0E5
:1056600093F90834D6E6930903F13901C9003833B8
:10567000A0E7BC425ED0BC68606820F003084545E6
:10568000A8EB050302D80F2B3FF766AF304600F0BA
:105690007BF90024BEE603F15C0C03F15B044FEAE6
:1056A000CC0039E659F808394B4540F095801CF09C
:1056B000030F0CF1FF3CF5D17B6823EA01037B600B
:1056C000490099423FF6C3AE11B9C0E6490004341F
:1056D0001942FBD0A44669E603F11008D4E6012282
:1056E0009B109A407B681A437A6073E702EB0801CB
:1056F0004942C1F30B0A51463046009200F04AF984
:10570000431CDDE900237FF4F5AEDA46F5E6542BC1
:1057100026D8130B03F16F01C9006E334AE7B3F5C6
:10572000AA7F26D8EB0B03F1780C03F177044FEA3C
:10573000CC00F1E5294B186840441860B6E6CAF37E
:105740000B0CBCF1000F7FF4B1AEBC68C84448F04C
:1057500001006060F5E61446F3E60123536095E727
:10576000B3F5AA7F24D8D30B03F17801C9007733AE
:1057700020E740F25452934224D8AB0C03F17D0C45
:1057800003F17C044FEACC00C6E5ABF1080BD8442A
:105790004FF0000AA8EB0208AFE604F1080130461A
:1057A000009302F01DFFBC68009B60681968C8E6A2
:1057B00040F254518B420BD8930C03F17D01C90088
:1057C0007C33F7E64FF47E704FF07F0C7E24A3E528
:1057D0004FF47E717E23EDE67B6871E7AC1F0020FD
:1057E00088420DD98B1883420AD900EB020CBAB15A
:1057F000624613F801CD994202F801CDF9D1704704
:105800000F2A0ED8034602F1FF3C4AB10CF1010CFD
:10581000013B8C4411F8012B614503F8012FF9D1AC
:10582000704740EA01039B074FD1A2F1100370B506
:1058300001F1200C23F00F0501F1100E00F110040E
:10584000AC441B095EF8105C0EF1100E44F8105CBD
:105850005EF81C5C103444F81C5C5EF8185C44F87C
:10586000185C5EF8145CE64544F8145CEAD1013338
:1058700012F00C0F01EB031102F00F0400EB031305
:1058800027D08E46043C24F003064FEA940C1E44B5
:105890001C1F5EF8045B44F8045FB442F9D10CF1BC
:1058A000010402F0030203EB840301EB840102F123
:1058B000FF3C4AB10CF1010C013B8C4411F8012B67
:1058C000614503F8012FF9D170BD034602F1FF3C99
:1058D0009CE72246EBE700BF830730B548D0541E53
:1058E000002A3FD00346CAB201E0013C3AD303F894
:1058F000012B9D07F9D1032C2DD9CDB245EA052501
:105900000F2C45EA054536D9A4F1100222F00F0C00
:1059100003F1200EE6444FEA121C03F1100242E9A3
:10592000045542E9025510327245F8D10CF10102DA
:1059300014F00C0F03EB021204F00F0C13D0ACF1B7
:10594000040323F003030433134442F8045B93423B
:10595000FBD10CF003042CB1CAB21C4403F8012B98
:105960009C42FBD130BD64461346002CF4D1F9E7CC
:1059700003461446BFE71A46A446E0E7014802F092
:1059800037BF00BFE41F0020014802F033BF00BF53
:10599000E41F0020002238B5064D044608462A6060
:1059A000FDF7E0FA431C00D038BD2B68002BFBD07C
:1059B000236038BDF01F00200EB430B504466FF0F0
:1059C00000459CB00B4A1FAB0B49059253F8042BC2
:1059D000086802A9CDE9013407950495069400F002
:1059E0003BF80022029B1A701CB0BDE8304003B0A7
:1059F000704700BF0802FFFF1400002020F00301E1
:105A000010F00300C0F1000051F8043B00F1040C59
:105A10004FEACC0C6FF000021CBF22FA0CF21343C9
:105A20004FF0010C4CEA0C2C4CEA0C4CA3EB0C0292
:105A300022EA030212EACC1204BF51F8043B0430FC
:105A4000F4D0C2F1000102EA0102B2FA82F2C2F11C
:105A50001F0200EBD20070472DE9F04FD5B00C4685
:105A60000C9191460E930A9002F0BAFE0368184614
:105A70001793FFF7C3FFA3891690190603D523696F
:105A8000002B00F08F8700242BAB224698464D4612
:105A9000CDE929442893129400230024CDE914343D
:105AA0002B78CDE91922CDE91B2218920892002B00
:105AB00000F0CE81AA4604E01AF8013F002B00F066
:105AC0000981252BF8D1BAEB050640F007819AF839
:105AD0000030002B00F0BC8100234FF0FF324FF06C
